{
  "_format": "hh-sol-artifact-1",
  "contractName": "ERC721RegisterOfDeeds",
  "sourceName": "contracts/v2/ERC721RegisterOfDeeds.sol",
  "abi": [
    {
      "anonymous": false,
      "inputs": [
        {
          "indexed": false,
          "internalType": "contract IERC721",
          "name": "underlyingToken",
          "type": "address"
        },
        {
          "indexed": false,
          "internalType": "contract IERC721TrustedAgent",
          "name": "trustedAgent",
          "type": "address"
        },
        {
          "indexed": false,
          "internalType": "contract IERC721DeedToken",
          "name": "deedToken",
          "type": "address"
        }
      ],
      "name": "TrustedAgentRegistered",
      "type": "event"
    },
    {
      "inputs": [
        {
          "internalType": "contract IERC721",
          "name": "",
          "type": "address"
        },
        {
          "internalType": "contract IERC721TrustedAgent",
          "name": "",
          "type": "address"
        }
      ],
      "name": "deedToken",
      "outputs": [
        {
          "internalType": "contract IERC721DeedToken",
          "name": "",
          "type": "address"
        }
      ],
      "stateMutability": "view",
      "type": "function"
    },
    {
      "inputs": [
        {
          "internalType": "address",
          "name": "operator",
          "type": "address"
        },
        {
          "internalType": "address",
          "name": "from",
          "type": "address"
        },
        {
          "internalType": "uint256",
          "name": "tokenId",
          "type": "uint256"
        },
        {
          "internalType": "bytes",
          "name": "data",
          "type": "bytes"
        }
      ],
      "name": "onERC721Received",
      "outputs": [
        {
          "internalType": "bytes4",
          "name": "",
          "type": "bytes4"
        }
      ],
      "stateMutability": "nonpayable",
      "type": "function"
    },
    {
      "inputs": [
        {
          "internalType": "contract IERC721",
          "name": "underlyingToken",
          "type": "address"
        },
        {
          "internalType": "contract IERC721TrustedAgent",
          "name": "trustedAgent_",
          "type": "address"
        }
      ],
      "name": "registerTrustedAgent",
      "outputs": [
        {
          "internalType": "contract IERC721DeedToken",
          "name": "",
          "type": "address"
        }
      ],
      "stateMutability": "nonpayable",
      "type": "function"
    },
    {
      "inputs": [
        {
          "internalType": "bytes4",
          "name": "interfaceId",
          "type": "bytes4"
        }
      ],
      "name": "supportsInterface",
      "outputs": [
        {
          "internalType": "bool",
          "name": "",
          "type": "bool"
        }
      ],
      "stateMutability": "pure",
      "type": "function"
    },
    {
      "inputs": [
        {
          "internalType": "contract IERC721",
          "name": "",
          "type": "address"
        },
        {
          "internalType": "uint256",
          "name": "",
          "type": "uint256"
        }
      ],
      "name": "trustedAgent",
      "outputs": [
        {
          "internalType": "contract IERC721TrustedAgent",
          "name": "",
          "type": "address"
        }
      ],
      "stateMutability": "view",
      "type": "function"
    },
    {
      "inputs": [
        {
          "internalType": "contract IERC721",
          "name": "underlyingToken",
          "type": "address"
        },
        {
          "internalType": "uint256",
          "name": "tokenId",
          "type": "uint256"
        }
      ],
      "name": "unwrap",
      "outputs": [],
      "stateMutability": "nonpayable",
      "type": "function"
    },
    {
      "inputs": [
        {
          "internalType": "contract IERC721",
          "name": "underlyingToken",
          "type": "address"
        },
        {
          "internalType": "uint256",
          "name": "tokenId",
          "type": "uint256"
        },
        {
          "internalType": "address",
          "name": "owner",
          "type": "address"
        }
      ],
      "name": "wrap",
      "outputs": [],
      "stateMutability": "nonpayable",
      "type": "function"
    }
  ],
  "bytecode": "0x608060405234801561001057600080fd5b506125ce806100206000396000f3fe608060405234801561001057600080fd5b506004361061007d5760003560e01c806339f476931161005b57806339f476931461021a5780635c15155e14610248578063883deacf1461027e578063d99d28e6146102aa5761007d565b806301ffc9a7146100825780630f9c8458146100d5578063150b7a021461011f575b600080fd5b6100c16004803603602081101561009857600080fd5b50357fffffffff00000000000000000000000000000000000000000000000000000000166102d8565b604080519115158252519081900360200190f35b610103600480360360408110156100eb57600080fd5b506001600160a01b03813581169160200135166103bd565b604080516001600160a01b039092168252519081900360200190f35b6101e56004803603608081101561013557600080fd5b6001600160a01b0382358116926020810135909116916040820135919081019060808101606082013564010000000081111561017057600080fd5b82018360208201111561018257600080fd5b803590602001918460018302840111640100000000831117156101a457600080fd5b91908080601f0160208091040260200160405190810160405280939291908181526020018383808284376000920191909152509295506103e0945050505050565b604080517fffffffff000000000000000000000000000000000000000000000000000000009092168252519081900360200190f35b6102466004803603604081101561023057600080fd5b506001600160a01b0381351690602001356104fd565b005b6102466004803603606081101561025e57600080fd5b506001600160a01b03813581169160208101359160409091013516610727565b6101036004803603604081101561029457600080fd5b506001600160a01b03813516906020013561084c565b610103600480360360408110156102c057600080fd5b506001600160a01b0381358116916020013516610872565b60007fffffffff0000000000000000000000000000000000000000000000000000000082167f01ffc9a700000000000000000000000000000000000000000000000000000000148061036b57507fffffffff0000000000000000000000000000000000000000000000000000000082167f3bdd25bc00000000000000000000000000000000000000000000000000000000145b806103b757507fffffffff0000000000000000000000000000000000000000000000000000000082167f150b7a0200000000000000000000000000000000000000000000000000000000145b92915050565b60006020818152928152604080822090935290815220546001600160a01b031681565b60003385826103ef8383610872565b6001600160a01b0384811660009081526001602090815260408083208b84529091528120805473ffffffffffffffffffffffffffffffffffffffff1916868416179055919250888116908a1614610446578761045e565b85806020019051602081101561045b57600080fd5b50515b9050816001600160a01b03166340c10f1982896040518363ffffffff1660e01b815260040180836001600160a01b0316815260200182815260200192505050600060405180830381600087803b1580156104b757600080fd5b505af11580156104cb573d6000803e3d6000fd5b507f150b7a02000000000000000000000000000000000000000000000000000000009c9b505050505050505050505050565b6001600160a01b0380831660009081526001602090815260408083208584529091529020541633811461059157604080517f08c379a000000000000000000000000000000000000000000000000000000000815260206004820152601560248201527f4e6f74207468652074727573746564206167656e740000000000000000000000604482015290519081900360640190fd5b6001600160a01b03808416600090815260208181526040808320858516845282528083205481517f6352211e0000000000000000000000000000000000000000000000000000000081526004810188905291519416938492636352211e9260248082019391829003018186803b15801561060a57600080fd5b505afa15801561061e573d6000803e3d6000fd5b505050506040513d602081101561063457600080fd5b5051604080517f23b872dd0000000000000000000000000000000000000000000000000000000081523060048201526001600160a01b038084166024830152604482018890529151929350908716916323b872dd9160648082019260009290919082900301818387803b1580156106aa57600080fd5b505af11580156106be573d6000803e3d6000fd5b50505050816001600160a01b03166342966c68856040518263ffffffff1660e01b815260040180828152602001915050600060405180830381600087803b15801561070857600080fd5b505af115801561071c573d6000803e3d6000fd5b505050505050505050565b3360006107348583610872565b6001600160a01b0386811660008181526001602090815260408083208a8452909152808220805473ffffffffffffffffffffffffffffffffffffffff1916948816948517905580517f23b872dd0000000000000000000000000000000000000000000000000000000081526004810194909452306024850152604484018990525193945090926323b872dd92606480820193929182900301818387803b1580156107dd57600080fd5b505af11580156107f1573d6000803e3d6000fd5b50505050806001600160a01b03166340c10f1984866040518363ffffffff1660e01b815260040180836001600160a01b0316815260200182815260200192505050600060405180830381600087803b15801561070857600080fd5b60016020908152600092835260408084209091529082529020546001600160a01b031681565b6001600160a01b03808316600090815260208181526040808320858516845290915281205490911680610a8557604080517f01ffc9a70000000000000000000000000000000000000000000000000000000081527f4e46f29b00000000000000000000000000000000000000000000000000000000600482015290516001600160a01b038616916301ffc9a7916024808301926020929190829003018186803b15801561091e57600080fd5b505afa158015610932573d6000803e3d6000fd5b505050506040513d602081101561094857600080fd5b5051156109b657604080517f08c379a000000000000000000000000000000000000000000000000000000000815260206004820152601b60248201527f556e6465726c79696e672063616e6e6f74206265206120646565640000000000604482015290519081900360640190fd5b83836040516109c490610a8c565b6001600160a01b03928316815291166020820152604080519182900301906000f0801580156109f7573d6000803e3d6000fd5b506001600160a01b0380861660008181526020818152604080832089861680855290835292819020805495871673ffffffffffffffffffffffffffffffffffffffff19909616861790558051938452908301919091528181019290925290519192507f4741ad4b58a87353206d157821e9d9e2c803252ed298ac845055850cc103fe2f919081900360600190a15b9392505050565b611aff80610a9a8339019056fe60e060405234801561001057600080fd5b50604051611aff380380611aff8339818101604052604081101561003357600080fd5b50805160209091015133606081811b6080526001600160601b031984821b811660a0529083901b1660c052916001600160a01b039081169116611a396100c660003980610926528061159d5250806104e05280610635528061073c5280610b735280610dd15280610ed85280611044528061114b528061155a525080610ba05280610c485280610cc85250611a396000f3fe608060405234801561001057600080fd5b50600436106101365760003560e01c806342966c68116100b257806395d89b4111610081578063b88d4fde11610066578063b88d4fde146103b2578063c87b56dd14610478578063e985e9c51461049557610136565b806395d89b411461037c578063a22cb4651461038457610136565b806342966c681461030257806360ce65ab1461031f5780636352211e1461032757806370a082311461034457610136565b8063095ea7b3116101095780632495a599116100ee5780632495a5991461029857806340c10f19146102a057806342842e0e146102cc57610136565b8063095ea7b31461023457806323b872dd1461026257610136565b806301ffc9a71461013b57806306fdde0314610176578063081812fc146101f3578063084a51d81461022c575b600080fd5b6101626004803603602081101561015157600080fd5b50356001600160e01b0319166104c3565b604080519115158252519081900360200190f35b61017e610631565b6040805160208082528351818301528351919283929083019185019080838360005b838110156101b85781810151838201526020016101a0565b50505050905090810190601f1680156101e55780820380516001836020036101000a031916815260200191505b509250505060405180910390f35b6102106004803603602081101561020957600080fd5b5035610885565b604080516001600160a01b039092168252519081900360200190f35b610210610924565b6102606004803603604081101561024a57600080fd5b506001600160a01b038135169060200135610948565b005b6102606004803603606081101561027857600080fd5b506001600160a01b03813581169160208101359091169060400135610b4f565b610210610b71565b610260600480360360408110156102b657600080fd5b506001600160a01b038135169060200135610b95565b610260600480360360608110156102e257600080fd5b506001600160a01b03813581169160208101359091169060400135610c20565b6102606004803603602081101561031857600080fd5b5035610c3d565b610210610cc6565b6102106004803603602081101561033d57600080fd5b5035610cea565b61036a6004803603602081101561035a57600080fd5b50356001600160a01b0316610d54565b60408051918252519081900360200190f35b61017e610dcd565b6102606004803603604081101561039a57600080fd5b506001600160a01b0381351690602001351515610f2f565b610260600480360360808110156103c857600080fd5b6001600160a01b0382358116926020810135909116916040820135919081019060808101606082013564010000000081111561040357600080fd5b82018360208201111561041557600080fd5b8035906020019184600183028401116401000000008311171561043757600080fd5b91908080601f01602080910402602001604051908101604052809392919081815260200183838082843760009201919091525092955061102c945050505050565b61017e6004803603602081101561048e57600080fd5b5035611040565b610162600480360360408110156104ab57600080fd5b506001600160a01b03813581169160200135166112a1565b60006001600160e01b03198216635b5e139f60e01b1415610594577f00000000000000000000000000000000000000000000000000000000000000006001600160a01b03166301ffc9a7836040518263ffffffff1660e01b815260040180827bffffffffffffffffffffffffffffffffffffffffffffffffffffffff1916815260200191505060206040518083038186803b15801561056157600080fd5b505afa158015610575573d6000803e3d6000fd5b505050506040513d602081101561058b57600080fd5b5051905061062c565b6001600160e01b031982167f01ffc9a70000000000000000000000000000000000000000000000000000000014806105f557506001600160e01b031982167f80ac58cd00000000000000000000000000000000000000000000000000000000145b8061062957506001600160e01b031982167f4e46f29b00000000000000000000000000000000000000000000000000000000145b90505b919050565b60607f00000000000000000000000000000000000000000000000000000000000000006001600160a01b03166301ffc9a7635b5e139f60e01b6040518263ffffffff1660e01b815260040180827bffffffffffffffffffffffffffffffffffffffffffffffffffffffff1916815260200191505060206040518083038186803b1580156106bd57600080fd5b505afa1580156106d1573d6000803e3d6000fd5b505050506040513d60208110156106e757600080fd5b505161073a576040805162461bcd60e51b815260206004820152601c60248201527f446565643a204d65746164617461206e6f7420737570706f7274656400000000604482015290519081900360640190fd5b7f00000000000000000000000000000000000000000000000000000000000000006001600160a01b03166306fdde036040518163ffffffff1660e01b815260040160006040518083038186803b15801561079357600080fd5b505afa1580156107a7573d6000803e3d6000fd5b505050506040513d6000823e601f3d908101601f1916820160405260208110156107d057600080fd5b81019080805160405193929190846401000000008211156107f057600080fd5b90830190602082018581111561080557600080fd5b825164010000000081118282018810171561081f57600080fd5b82525081516020918201929091019080838360005b8381101561084c578181015183820152602001610834565b50505050905090810190601f1680156108795780820380516001836020036101000a031916815260200191505b50604052505050905090565b6000818152600160205260408120546001600160a01b0381166108ef576040805162461bcd60e51b815260206004820152601860248201527f4552433732313a206e6f6e2d6578697374696e67204e46540000000000000000604482015290519081900360640190fd5b600160a01b81161561091a5750506000818152600360205260409020546001600160a01b031661062c565b600091505061062c565b7f000000000000000000000000000000000000000000000000000000000000000081565b600081815260016020526040902054806109a9576040805162461bcd60e51b815260206004820152601860248201527f4552433732313a206e6f6e2d6578697374696e67204e46540000000000000000604482015290519081900360640190fd5b806001600160a01b038481169082161415610a0b576040805162461bcd60e51b815260206004820152601560248201527f4552433732313a2073656c662d617070726f76616c0000000000000000000000604482015290519081900360640190fd5b610a1c81610a176112cd565b6112d1565b610a6d576040805162461bcd60e51b815260206004820152601b60248201527f4552433732313a206e6f6e2d617070726f7665642073656e6465720000000000604482015290519081900360640190fd5b6001600160a01b038416610aa757600160a01b821615610aa25760008381526001602052604090206001600160a01b03821690555b610b08565b600160a01b8217808314610ac75760008481526001602052604090208190555b50600083815260036020526040902080547fffffffffffffffffffffffff0000000000000000000000000000000000000000166001600160a01b0386161790555b82846001600160a01b0316826001600160a01b03167f8c5be1e5ebec7d5bd14f71427d1e84f3dd0314c0f7b2291e5b200ac8c7c3b92560405160405180910390a450505050565b610b6c83838360405180602001604052806000815250600061131d565b505050565b7f000000000000000000000000000000000000000000000000000000000000000081565b336001600160a01b037f00000000000000000000000000000000000000000000000000000000000000001614610c12576040805162461bcd60e51b815260206004820152601f60248201527f446565643a206e6f7420746865207265676973746572206f6620646565647300604482015290519081900360640190fd5b610c1c8282611818565b5050565b610b6c83838360405180602001604052806000815250600161131d565b336001600160a01b037f00000000000000000000000000000000000000000000000000000000000000001614610cba576040805162461bcd60e51b815260206004820152601f60248201527f446565643a206e6f7420746865207265676973746572206f6620646565647300604482015290519081900360640190fd5b610cc381611934565b50565b7f000000000000000000000000000000000000000000000000000000000000000081565b6000818152600160205260408120546001600160a01b038116610629576040805162461bcd60e51b815260206004820152601860248201527f4552433732313a206e6f6e2d6578697374696e67204e46540000000000000000604482015290519081900360640190fd5b60006001600160a01b038216610db1576040805162461bcd60e51b815260206004820152601460248201527f4552433732313a207a65726f2061646472657373000000000000000000000000604482015290519081900360640190fd5b506001600160a01b031660009081526002602052604090205490565b60607f00000000000000000000000000000000000000000000000000000000000000006001600160a01b03166301ffc9a7635b5e139f60e01b6040518263ffffffff1660e01b815260040180827bffffffffffffffffffffffffffffffffffffffffffffffffffffffff1916815260200191505060206040518083038186803b158015610e5957600080fd5b505afa158015610e6d573d6000803e3d6000fd5b505050506040513d6020811015610e8357600080fd5b5051610ed6576040805162461bcd60e51b815260206004820152601c60248201527f446565643a204d65746164617461206e6f7420737570706f7274656400000000604482015290519081900360640190fd5b7f00000000000000000000000000000000000000000000000000000000000000006001600160a01b03166395d89b416040518163ffffffff1660e01b815260040160006040518083038186803b15801561079357600080fd5b6000610f396112cd565b9050806001600160a01b0316836001600160a01b03161415610fa2576040805162461bcd60e51b815260206004820152601560248201527f4552433732313a2073656c662d617070726f76616c0000000000000000000000604482015290519081900360640190fd5b6001600160a01b038181166000818152602081815260408083209488168084529482529182902080547fffffffffffffffffffffffffffffffffffffffffffffffffffffffffffffff0016871515908117909155825190815291517f17307eab39ab6107e8899845ad3d59bd9653f200f220920489ca2b5937696c319281900390910190a3505050565b61103a84848484600161131d565b50505050565b60607f00000000000000000000000000000000000000000000000000000000000000006001600160a01b03166301ffc9a7635b5e139f60e01b6040518263ffffffff1660e01b815260040180827bffffffffffffffffffffffffffffffffffffffffffffffffffffffff1916815260200191505060206040518083038186803b1580156110cc57600080fd5b505afa1580156110e0573d6000803e3d6000fd5b505050506040513d60208110156110f657600080fd5b5051611149576040805162461bcd60e51b815260206004820152601c60248201527f446565643a204d65746164617461206e6f7420737570706f7274656400000000604482015290519081900360640190fd5b7f00000000000000000000000000000000000000000000000000000000000000006001600160a01b031663c87b56dd836040518263ffffffff1660e01b81526004018082815260200191505060006040518083038186803b1580156111ad57600080fd5b505afa1580156111c1573d6000803e3d6000fd5b505050506040513d6000823e601f3d908101601f1916820160405260208110156111ea57600080fd5b810190808051604051939291908464010000000082111561120a57600080fd5b90830190602082018581111561121f57600080fd5b825164010000000081118282018810171561123957600080fd5b82525081516020918201929091019080838360005b8381101561126657818101518382015260200161124e565b50505050905090810190601f1680156112935780820380516001836020036101000a031916815260200191505b506040525050509050919050565b6001600160a01b0391821660009081526020818152604080832093909416825291909152205460ff1690565b3390565b6000816001600160a01b0316836001600160a01b0316148061131657506001600160a01b038084166000908152602081815260408083209386168352929052205460ff165b9392505050565b6001600160a01b038416611378576040805162461bcd60e51b815260206004820152601860248201527f4552433732313a207472616e7366657220746f207a65726f0000000000000000604482015290519081900360640190fd5b60006113826112cd565b9050600061139087836112d1565b6000868152600160205260409020549091506001600160a01b0388811690821614611402576040805162461bcd60e51b815260206004820152601560248201527f4552433732313a206e6f6e2d6f776e6564204e46540000000000000000000000604482015290519081900360640190fd5b8161149357600160a01b81161580159061144257506000868152600360205260409020546001600160a01b03166114376112cd565b6001600160a01b0316145b611493576040805162461bcd60e51b815260206004820152601b60248201527f4552433732313a206e6f6e2d617070726f7665642073656e6465720000000000604482015290519081900360640190fd5b60008681526001602052604090206001600160a01b03808916918290558916146114e7576001600160a01b038089166000908152600260205260408082208054600019019055918916815220805460010190555b85876001600160a01b0316896001600160a01b03167fddf252ad1be2c89b69c2b068fc378daa952ba7f163c4a11628f55a4df523b3ef60405160405180910390a4604080517f58d179a5000000000000000000000000000000000000000000000000000000008082526001600160a01b037f000000000000000000000000000000000000000000000000000000000000000081166004840152602483018a90528b811660448401528a81166064840152925190927f000000000000000000000000000000000000000000000000000000000000000016916358d179a59160848083019260209291908290030181600087803b1580156115e557600080fd5b505af11580156115f9573d6000803e3d6000fd5b505050506040513d602081101561160f57600080fd5b50516001600160e01b0319161461166d576040805162461bcd60e51b815260206004820152601b60248201527f446565643a206167656e742063616c6c6261636b206661696c65640000000000604482015290519081900360640190fd5b8380156116875750611687876001600160a01b03166119fd565b1561180e577f150b7a02000000000000000000000000000000000000000000000000000000006001600160a01b03881663150b7a026116c46112cd565b8b8a8a6040518563ffffffff1660e01b815260040180856001600160a01b03168152602001846001600160a01b0316815260200183815260200180602001828103825283818151815260200191508051906020019080838360005b8381101561173757818101518382015260200161171f565b50505050905090810190601f1680156117645780820380516001836020036101000a031916815260200191505b5095505050505050602060405180830381600087803b15801561178657600080fd5b505af115801561179a573d6000803e3d6000fd5b505050506040513d60208110156117b057600080fd5b50516001600160e01b0319161461180e576040805162461bcd60e51b815260206004820152601860248201527f4552433732313a207472616e7366657220726566757365640000000000000000604482015290519081900360640190fd5b5050505050505050565b6001600160a01b038216611873576040805162461bcd60e51b815260206004820152601460248201527f4552433732313a206d696e7420746f207a65726f000000000000000000000000604482015290519081900360640190fd5b600081815260016020526040902054156118d4576040805162461bcd60e51b815260206004820152601460248201527f4552433732313a206578697374696e67204e4654000000000000000000000000604482015290519081900360640190fd5b60008181526001602081815260408084206001600160a01b038716908190558085526002909252808420805490930190925590518392907fddf252ad1be2c89b69c2b068fc378daa952ba7f163c4a11628f55a4df523b3ef908290a45050565b6000818152600160205260409020546001600160a01b03811661199e576040805162461bcd60e51b815260206004820152601860248201527f4552433732313a206e6f6e2d6578697374696e67204e46540000000000000000604482015290519081900360640190fd5b60008281526001602090815260408083208390556001600160a01b0384168084526002909252808320805460001901905551849291907fddf252ad1be2c89b69c2b068fc378daa952ba7f163c4a11628f55a4df523b3ef908390a45050565b3b15159056fea2646970667358221220003d3d19de3fca1409f0b08b38b46016a5429a01017bd6b5c9be6104ac34124a64736f6c63430007060033a264697066735822122042bd2b3f49dd7ea6e908b72a2a07cb5f87e82c74aeddeb5be2dc79569252e0a664736f6c63430007060033",
  "linkReferences": {},
  "deployedLinkReferences": {}
}