{
  "_format": "hh-sol-artifact-1",
  "contractName": "TrustedAgentMock",
  "sourceName": "contracts/mocks/TrustedAgentMock.sol",
  "abi": [
    {
      "inputs": [
        {
          "internalType": "contract IERC721",
          "name": "nftContract_",
          "type": "address"
        },
        {
          "internalType": "contract IRegisterOfDeeds",
          "name": "registerOfDeeds_",
          "type": "address"
        },
        {
          "internalType": "bool",
          "name": "acceptCallback_",
          "type": "bool"
        }
      ],
      "stateMutability": "nonpayable",
      "type": "constructor"
    },
    {
      "inputs": [
        {
          "internalType": "uint256",
          "name": "tokenId",
          "type": "uint256"
        }
      ],
      "name": "createDeed",
      "outputs": [],
      "stateMutability": "nonpayable",
      "type": "function"
    },
    {
      "inputs": [
        {
          "internalType": "uint256",
          "name": "tokenId",
          "type": "uint256"
        }
      ],
      "name": "destroyDeed",
      "outputs": [],
      "stateMutability": "nonpayable",
      "type": "function"
    },
    {
      "inputs": [],
      "name": "nftContract",
      "outputs": [
        {
          "internalType": "contract IERC721",
          "name": "",
          "type": "address"
        }
      ],
      "stateMutability": "view",
      "type": "function"
    },
    {
      "inputs": [
        {
          "internalType": "contract IERC721",
          "name": "underlyingToken",
          "type": "address"
        },
        {
          "internalType": "uint256",
          "name": "tokenId",
          "type": "uint256"
        },
        {
          "internalType": "address",
          "name": "previousOwner",
          "type": "address"
        },
        {
          "internalType": "address",
          "name": "newOwner",
          "type": "address"
        }
      ],
      "name": "onDeedTransferred",
      "outputs": [
        {
          "internalType": "bytes4",
          "name": "",
          "type": "bytes4"
        }
      ],
      "stateMutability": "nonpayable",
      "type": "function"
    },
    {
      "inputs": [
        {
          "internalType": "address",
          "name": "",
          "type": "address"
        },
        {
          "internalType": "address",
          "name": "from",
          "type": "address"
        },
        {
          "internalType": "uint256",
          "name": "tokenId",
          "type": "uint256"
        },
        {
          "internalType": "bytes",
          "name": "",
          "type": "bytes"
        }
      ],
      "name": "onERC721Received",
      "outputs": [
        {
          "internalType": "bytes4",
          "name": "",
          "type": "bytes4"
        }
      ],
      "stateMutability": "nonpayable",
      "type": "function"
    },
    {
      "inputs": [],
      "name": "registerOfDeeds",
      "outputs": [
        {
          "internalType": "contract IRegisterOfDeeds",
          "name": "",
          "type": "address"
        }
      ],
      "stateMutability": "view",
      "type": "function"
    },
    {
      "inputs": [
        {
          "internalType": "bytes4",
          "name": "interfaceId",
          "type": "bytes4"
        }
      ],
      "name": "supportsInterface",
      "outputs": [
        {
          "internalType": "bool",
          "name": "",
          "type": "bool"
        }
      ],
      "stateMutability": "view",
      "type": "function"
    }
  ],
  "bytecode": "0x60e060405234801561001057600080fd5b50604051610b38380380610b388339818101604052606081101561003357600080fd5b50805160208201516040928301516001600160601b0319606083811b821660805284901b1660a05280151560f81b60c052835163a22cb46560e01b81526001600160a01b03808416600483015260016024830152945193949293919285169163a22cb4659160448082019260009290919082900301818387803b1580156100b957600080fd5b505af11580156100cd573d6000803e3d6000fd5b5050505050505060805160601c60a05160601c60c05160f81c610a02610136600039806105935250806102d8528061032e52806103bd528061061852806106db5250806102ff528061044252806105f452806106485280610794528061089e5250610a026000f3fe608060405234801561001057600080fd5b506004361061007d5760003560e01c806358d179a51161005b57806358d179a5146101ef57806360ce65ab1461022b578063884580161461024f578063d56d229d1461026c5761007d565b806301ffc9a714610082578063147dc291146100d5578063150b7a02146100f4575b600080fd5b6100c16004803603602081101561009857600080fd5b50357fffffffff0000000000000000000000000000000000000000000000000000000016610274565b604080519115158252519081900360200190f35b6100f2600480360360208110156100eb57600080fd5b50356102d1565b005b6101ba6004803603608081101561010a57600080fd5b6001600160a01b0382358116926020810135909116916040820135919081019060808101606082013564010000000081111561014557600080fd5b82018360208201111561015757600080fd5b8035906020019184600183028401116401000000008311171561017957600080fd5b91908080601f0160208091040260200160405190810160405280939291908181526020018383808284376000920191909152509295506103b0945050505050565b604080517fffffffff000000000000000000000000000000000000000000000000000000009092168252519081900360200190f35b6101ba6004803603608081101561020557600080fd5b506001600160a01b0381358116916020810135916040820135811691606001351661058f565b6102336105f2565b604080516001600160a01b039092168252519081900360200190f35b6100f26004803603602081101561026557600080fd5b5035610616565b6102336106d9565b600061027f826106fd565b806102cb57507fffffffff0000000000000000000000000000000000000000000000000000000082167f150b7a0200000000000000000000000000000000000000000000000000000000145b92915050565b336102fd817f000000000000000000000000000000000000000000000000000000000000000084610792565b7f00000000000000000000000000000000000000000000000000000000000000006001600160a01b031663df2b955c7f0000000000000000000000000000000000000000000000000000000000000000846040518363ffffffff1660e01b815260040180836001600160a01b0316815260200182815260200192505050600060405180830381600087803b15801561039457600080fd5b505af11580156103a8573d6000803e3d6000fd5b505050505050565b6000336001600160a01b037f0000000000000000000000000000000000000000000000000000000000000000168114610430576040805162461bcd60e51b815260206004820152601e60248201527f45524337323152656365697665723a2077726f6e6720636f6e74726163740000604482015290519081900360640190fd5b806001600160a01b031663b88d4fde307f0000000000000000000000000000000000000000000000000000000000000000878960405160200180826001600160a01b031681526020019150506040516020818303038152906040526040518563ffffffff1660e01b815260040180856001600160a01b03168152602001846001600160a01b0316815260200183815260200180602001828103825283818151815260200191508051906020019080838360005b838110156104fb5781810151838201526020016104e3565b50505050905090810190601f1680156105285780820380516001836020036101000a031916815260200191505b5095505050505050600060405180830381600087803b15801561054a57600080fd5b505af115801561055e573d6000803e3d6000fd5b505050507f150b7a02000000000000000000000000000000000000000000000000000000009150505b949350505050565b60007f00000000000000000000000000000000000000000000000000000000000000006105dd57507fffffffff00000000000000000000000000000000000000000000000000000000610587565b6105e985858585610899565b95945050505050565b7f000000000000000000000000000000000000000000000000000000000000000081565b7f00000000000000000000000000000000000000000000000000000000000000006001600160a01b03166342842e0e337f0000000000000000000000000000000000000000000000000000000000000000846040518463ffffffff1660e01b815260040180846001600160a01b03168152602001836001600160a01b031681526020018281526020019350505050600060405180830381600087803b1580156106be57600080fd5b505af11580156106d2573d6000803e3d6000fd5b5050505050565b7f000000000000000000000000000000000000000000000000000000000000000081565b60007fffffffff0000000000000000000000000000000000000000000000000000000082167f01ffc9a70000000000000000000000000000000000000000000000000000000014806102cb5750507fffffffff00000000000000000000000000000000000000000000000000000000167f58d179a5000000000000000000000000000000000000000000000000000000001490565b7f00000000000000000000000000000000000000000000000000000000000000006001600160a01b0316631f29d2dc83836040518363ffffffff1660e01b815260040180836001600160a01b0316815260200182815260200192505050602060405180830381600087803b15801561080957600080fd5b505af115801561081d573d6000803e3d6000fd5b505050506040513d602081101561083357600080fd5b50516001600160a01b03848116911614610894576040805162461bcd60e51b815260206004820152601d60248201527f547275737465644167656e743a206e6f7420746f6b656e206f776e6572000000604482015290519081900360640190fd5b505050565b6000807f00000000000000000000000000000000000000000000000000000000000000006001600160a01b0316633a43b2aa876040518263ffffffff1660e01b815260040180826001600160a01b0316815260200191505060206040518083038186803b15801561090957600080fd5b505afa15801561091d573d6000803e3d6000fd5b505050506040513d602081101561093357600080fd5b50519050336001600160a01b03821614610994576040805162461bcd60e51b815260206004820152601a60248201527f547275737465644167656e743a2077726f6e672073656e646572000000000000604482015290519081900360640190fd5b6109a186828787876106d2565b507f58d179a5000000000000000000000000000000000000000000000000000000009594505050505056fea26469706673582212201a6799c28a694b73337db8807cbef2a35d4f8ddece6e5821c85ab2054a16bee264736f6c63430007060033",
  "linkReferences": {},
  "deployedLinkReferences": {}
}