{
  "_format": "hh-sol-artifact-1",
  "contractName": "ERC721TrustedAgentMock",
  "sourceName": "contracts/v2/mocks/ERC721TrustedAgentMock.sol",
  "abi": [
    {
      "inputs": [
        {
          "internalType": "contract IERC721",
          "name": "underlyingToken_",
          "type": "address"
        },
        {
          "internalType": "contract IERC721RegisterOfDeeds",
          "name": "registerOfDeeds_",
          "type": "address"
        },
        {
          "internalType": "bool",
          "name": "acceptCallback_",
          "type": "bool"
        }
      ],
      "stateMutability": "nonpayable",
      "type": "constructor"
    },
    {
      "anonymous": false,
      "inputs": [],
      "name": "DeedTransferred",
      "type": "event"
    },
    {
      "inputs": [
        {
          "internalType": "contract IERC721",
          "name": "underlyingToken_",
          "type": "address"
        },
        {
          "internalType": "uint256",
          "name": "tokenId",
          "type": "uint256"
        },
        {
          "internalType": "address",
          "name": "previousOwner",
          "type": "address"
        },
        {
          "internalType": "address",
          "name": "newOwner",
          "type": "address"
        }
      ],
      "name": "onDeedTransferred",
      "outputs": [
        {
          "internalType": "bytes4",
          "name": "",
          "type": "bytes4"
        }
      ],
      "stateMutability": "nonpayable",
      "type": "function"
    },
    {
      "inputs": [
        {
          "internalType": "address",
          "name": "",
          "type": "address"
        },
        {
          "internalType": "address",
          "name": "from",
          "type": "address"
        },
        {
          "internalType": "uint256",
          "name": "tokenId",
          "type": "uint256"
        },
        {
          "internalType": "bytes",
          "name": "",
          "type": "bytes"
        }
      ],
      "name": "onERC721Received",
      "outputs": [
        {
          "internalType": "bytes4",
          "name": "",
          "type": "bytes4"
        }
      ],
      "stateMutability": "nonpayable",
      "type": "function"
    },
    {
      "inputs": [],
      "name": "registerOfDeeds",
      "outputs": [
        {
          "internalType": "contract IERC721RegisterOfDeeds",
          "name": "",
          "type": "address"
        }
      ],
      "stateMutability": "view",
      "type": "function"
    },
    {
      "inputs": [
        {
          "internalType": "bytes4",
          "name": "interfaceId",
          "type": "bytes4"
        }
      ],
      "name": "supportsInterface",
      "outputs": [
        {
          "internalType": "bool",
          "name": "",
          "type": "bool"
        }
      ],
      "stateMutability": "view",
      "type": "function"
    },
    {
      "inputs": [],
      "name": "underlyingToken",
      "outputs": [
        {
          "internalType": "contract IERC721",
          "name": "",
          "type": "address"
        }
      ],
      "stateMutability": "view",
      "type": "function"
    },
    {
      "inputs": [
        {
          "internalType": "uint256",
          "name": "tokenId",
          "type": "uint256"
        }
      ],
      "name": "unwrap",
      "outputs": [],
      "stateMutability": "nonpayable",
      "type": "function"
    },
    {
      "inputs": [
        {
          "internalType": "uint256",
          "name": "tokenId",
          "type": "uint256"
        }
      ],
      "name": "wrapWithFunctionCall",
      "outputs": [],
      "stateMutability": "nonpayable",
      "type": "function"
    },
    {
      "inputs": [
        {
          "internalType": "uint256",
          "name": "tokenId",
          "type": "uint256"
        }
      ],
      "name": "wrapWithSafeTransfer",
      "outputs": [],
      "stateMutability": "nonpayable",
      "type": "function"
    }
  ],
  "bytecode": "0x60e060405234801561001057600080fd5b50604051610d7f380380610d7f8339818101604052606081101561003357600080fd5b50805160208201516040928301516001600160601b0319606083811b821660805284901b1660a05280151560f81b60c052835163a22cb46560e01b81526001600160a01b03808416600483015260016024830152945193949293919285169163a22cb4659160448082019260009290919082900301818387803b1580156100b957600080fd5b505af11580156100cd573d6000803e3d6000fd5b5050505050505060805160601c60a05160601c60c05160f81c610c3561014a600039806106865250806102fd528061037a52806104f8528061056052806105f0528061070b52806107e252806109a45250806103aa52806105c152806106e7528061073b528061081552806109755280610ac05250610c356000f3fe608060405234801561001057600080fd5b50600436106100885760003560e01c806358d179a51161005b57806358d179a51461021e57806360ce65ab1461025a578063633a2eb514610262578063de0e9a3e1461027f57610088565b806301ffc9a71461008d578063150b7a02146100e05780632495a599146101db5780634c0f5841146101ff575b600080fd5b6100cc600480360360208110156100a357600080fd5b50357fffffffff000000000000000000000000000000000000000000000000000000001661029c565b604080519115158252519081900360200190f35b6101a6600480360360808110156100f657600080fd5b6001600160a01b0382358116926020810135909116916040820135919081019060808101606082013564010000000081111561013157600080fd5b82018360208201111561014357600080fd5b8035906020019184600183028401116401000000008311171561016557600080fd5b91908080601f0160208091040260200160405190810160405280939291908181526020018383808284376000920191909152509295506102f9945050505050565b604080517fffffffff000000000000000000000000000000000000000000000000000000009092168252519081900360200190f35b6101e36104f6565b604080516001600160a01b039092168252519081900360200190f35b61021c6004803603602081101561021557600080fd5b503561051a565b005b6101a66004803603608081101561023457600080fd5b506001600160a01b03813581169160208101359160408201358116916060013516610682565b6101e36106e5565b61021c6004803603602081101561027857600080fd5b5035610709565b61021c6004803603602081101561029557600080fd5b50356107b1565b60006102a782610a26565b806102f357507fffffffff0000000000000000000000000000000000000000000000000000000082167f150b7a0200000000000000000000000000000000000000000000000000000000145b92915050565b60007f00000000000000000000000000000000000000000000000000000000000000006001600160a01b03163314610378576040805162461bcd60e51b815260206004820152601e60248201527f45524337323152656365697665723a2077726f6e6720636f6e74726163740000604482015290519081900360640190fd5b7f00000000000000000000000000000000000000000000000000000000000000006001600160a01b031663b88d4fde307f0000000000000000000000000000000000000000000000000000000000000000868860405160200180826001600160a01b031681526020019150506040516020818303038152906040526040518563ffffffff1660e01b815260040180856001600160a01b03168152602001846001600160a01b0316815260200183815260200180602001828103825283818151815260200191508051906020019080838360005b8381101561046357818101518382015260200161044b565b50505050905090810190601f1680156104905780820380516001836020036101000a031916815260200191505b5095505050505050600060405180830381600087803b1580156104b257600080fd5b505af11580156104c6573d6000803e3d6000fd5b507f150b7a020000000000000000000000000000000000000000000000000000000093505050505b949350505050565b7f000000000000000000000000000000000000000000000000000000000000000081565b604080517f23b872dd0000000000000000000000000000000000000000000000000000000081523360048201523060248201526044810183905290516001600160a01b037f000000000000000000000000000000000000000000000000000000000000000016916323b872dd91606480830192600092919082900301818387803b1580156105a757600080fd5b505af11580156105bb573d6000803e3d6000fd5b505050507f00000000000000000000000000000000000000000000000000000000000000006001600160a01b0316635c15155e7f000000000000000000000000000000000000000000000000000000000000000083336040518463ffffffff1660e01b815260040180846001600160a01b03168152602001838152602001826001600160a01b031681526020019350505050600060405180830381600087803b15801561066757600080fd5b505af115801561067b573d6000803e3d6000fd5b5050505050565b60007f00000000000000000000000000000000000000000000000000000000000000006106d057507fffffffff000000000000000000000000000000000000000000000000000000006104ee565b6106dc85858585610abb565b95945050505050565b7f000000000000000000000000000000000000000000000000000000000000000081565b7f00000000000000000000000000000000000000000000000000000000000000006001600160a01b03166342842e0e337f0000000000000000000000000000000000000000000000000000000000000000846040518463ffffffff1660e01b815260040180846001600160a01b03168152602001836001600160a01b031681526020018281526020019350505050600060405180830381600087803b15801561066757600080fd5b604080517f0f9c84580000000000000000000000000000000000000000000000000000000081526001600160a01b037f00000000000000000000000000000000000000000000000000000000000000008116600483015230602483015291516000927f00000000000000000000000000000000000000000000000000000000000000001691630f9c8458916044808301926020929190829003018186803b15801561085b57600080fd5b505afa15801561086f573d6000803e3d6000fd5b505050506040513d602081101561088557600080fd5b5051604080517f6352211e0000000000000000000000000000000000000000000000000000000081526004810185905290519192506001600160a01b03831691636352211e91602480820192602092909190829003018186803b1580156108eb57600080fd5b505afa1580156108ff573d6000803e3d6000fd5b505050506040513d602081101561091557600080fd5b50516001600160a01b03163314610973576040805162461bcd60e51b815260206004820152601c60248201527f547275737465644167656e743a206e6f742064656564206f776e657200000000604482015290519081900360640190fd5b7f00000000000000000000000000000000000000000000000000000000000000006001600160a01b03166339f476937f0000000000000000000000000000000000000000000000000000000000000000846040518363ffffffff1660e01b815260040180836001600160a01b0316815260200182815260200192505050600060405180830381600087803b158015610a0a57600080fd5b505af1158015610a1e573d6000803e3d6000fd5b505050505050565b60007fffffffff0000000000000000000000000000000000000000000000000000000082167f01ffc9a70000000000000000000000000000000000000000000000000000000014806102f35750507fffffffff00000000000000000000000000000000000000000000000000000000167f58d179a5000000000000000000000000000000000000000000000000000000001490565b6000807f00000000000000000000000000000000000000000000000000000000000000006001600160a01b0316630f9c845887306040518363ffffffff1660e01b815260040180836001600160a01b03168152602001826001600160a01b031681526020019250505060206040518083038186803b158015610b3c57600080fd5b505afa158015610b50573d6000803e3d6000fd5b505050506040513d6020811015610b6657600080fd5b50519050336001600160a01b03821614610bc7576040805162461bcd60e51b815260206004820152601a60248201527f547275737465644167656e743a2077726f6e672073656e646572000000000000604482015290519081900360640190fd5b610bd4868287878761067b565b507f58d179a5000000000000000000000000000000000000000000000000000000009594505050505056fea2646970667358221220a9121bf7af7fb7897b54368e2ed62abd7e9d2ebe679841d730fe7b7b6167864064736f6c63430007060033",
  "linkReferences": {},
  "deployedLinkReferences": {}
}