{
  "_format": "hh-sol-artifact-1",
  "contractName": "ERC721WrongTrustedAgentMock",
  "sourceName": "contracts/v2/mocks/ERC721WrongTrustedAgentMock.sol",
  "abi": [
    {
      "inputs": [
        {
          "internalType": "contract IERC721",
          "name": "underlyingToken_",
          "type": "address"
        },
        {
          "internalType": "contract IERC721RegisterOfDeeds",
          "name": "registerOfDeeds_",
          "type": "address"
        }
      ],
      "stateMutability": "nonpayable",
      "type": "constructor"
    },
    {
      "anonymous": false,
      "inputs": [],
      "name": "DeedTransferred",
      "type": "event"
    },
    {
      "inputs": [
        {
          "internalType": "address",
          "name": "",
          "type": "address"
        },
        {
          "internalType": "address",
          "name": "from",
          "type": "address"
        },
        {
          "internalType": "uint256",
          "name": "tokenId",
          "type": "uint256"
        },
        {
          "internalType": "bytes",
          "name": "",
          "type": "bytes"
        }
      ],
      "name": "onERC721Received",
      "outputs": [
        {
          "internalType": "bytes4",
          "name": "",
          "type": "bytes4"
        }
      ],
      "stateMutability": "nonpayable",
      "type": "function"
    },
    {
      "inputs": [],
      "name": "registerOfDeeds",
      "outputs": [
        {
          "internalType": "contract IERC721RegisterOfDeeds",
          "name": "",
          "type": "address"
        }
      ],
      "stateMutability": "view",
      "type": "function"
    },
    {
      "inputs": [],
      "name": "underlyingToken",
      "outputs": [
        {
          "internalType": "contract IERC721",
          "name": "",
          "type": "address"
        }
      ],
      "stateMutability": "view",
      "type": "function"
    }
  ],
  "bytecode": "0x60c060405234801561001057600080fd5b506040516104ac3803806104ac8339818101604052604081101561003357600080fd5b5080516020909101516001600160601b0319606082811b821660805283901b1660a0526040805163a22cb46560e01b81526001600160a01b0380841660048301526001602483015291519184169163a22cb4659160448082019260009290919082900301818387803b1580156100a857600080fd5b505af11580156100bc573d6000803e3d6000fd5b50505050505060805160601c60a05160601c6103b76100f56000398061018b528061033b5250806101c8528061035f52506103b76000f3fe608060405234801561001057600080fd5b50600436106100415760003560e01c8063150b7a02146100465780632495a5991461014e57806360ce65ab1461017f575b600080fd5b6101196004803603608081101561005c57600080fd5b73ffffffffffffffffffffffffffffffffffffffff8235811692602081013590911691604082013591908101906080810160608201356401000000008111156100a457600080fd5b8201836020820111156100b657600080fd5b803590602001918460018302840111640100000000831117156100d857600080fd5b91908080601f016020809104026020016040519081016040528093929190818152602001838380828437600092019190915250929550610187945050505050565b604080517fffffffff000000000000000000000000000000000000000000000000000000009092168252519081900360200190f35b610156610339565b6040805173ffffffffffffffffffffffffffffffffffffffff9092168252519081900360200190f35b61015661035d565b60007f000000000000000000000000000000000000000000000000000000000000000073ffffffffffffffffffffffffffffffffffffffff1663b88d4fde307f00000000000000000000000000000000000000000000000000000000000000008688604051602001808273ffffffffffffffffffffffffffffffffffffffff1681526020019150506040516020818303038152906040526040518563ffffffff1660e01b8152600401808573ffffffffffffffffffffffffffffffffffffffff1681526020018473ffffffffffffffffffffffffffffffffffffffff16815260200183815260200180602001828103825283818151815260200191508051906020019080838360005b838110156102a8578181015183820152602001610290565b50505050905090810190601f1680156102d55780820380516001836020036101000a031916815260200191505b5095505050505050600060405180830381600087803b1580156102f757600080fd5b505af115801561030b573d6000803e3d6000fd5b507f150b7a020000000000000000000000000000000000000000000000000000000098975050505050505050565b7f000000000000000000000000000000000000000000000000000000000000000081565b7f00000000000000000000000000000000000000000000000000000000000000008156fea26469706673582212204a71ff95fea4929610cf1c145c2a975950de5c290f4bd973a30e9412996a9ee264736f6c63430007060033",
  "linkReferences": {},
  "deployedLinkReferences": {}
}