{
  "_format": "hh-sol-artifact-1",
  "contractName": "DeedToken",
  "sourceName": "contracts/DeedToken.sol",
  "abi": [
    {
      "inputs": [
        {
          "internalType": "contract IERC721",
          "name": "underlyingToken_",
          "type": "address"
        }
      ],
      "stateMutability": "nonpayable",
      "type": "constructor"
    },
    {
      "anonymous": false,
      "inputs": [
        {
          "indexed": true,
          "internalType": "address",
          "name": "_owner",
          "type": "address"
        },
        {
          "indexed": true,
          "internalType": "address",
          "name": "_approved",
          "type": "address"
        },
        {
          "indexed": true,
          "internalType": "uint256",
          "name": "_tokenId",
          "type": "uint256"
        }
      ],
      "name": "Approval",
      "type": "event"
    },
    {
      "anonymous": false,
      "inputs": [
        {
          "indexed": true,
          "internalType": "address",
          "name": "_owner",
          "type": "address"
        },
        {
          "indexed": true,
          "internalType": "address",
          "name": "_operator",
          "type": "address"
        },
        {
          "indexed": false,
          "internalType": "bool",
          "name": "_approved",
          "type": "bool"
        }
      ],
      "name": "ApprovalForAll",
      "type": "event"
    },
    {
      "anonymous": false,
      "inputs": [
        {
          "indexed": true,
          "internalType": "address",
          "name": "_from",
          "type": "address"
        },
        {
          "indexed": true,
          "internalType": "address",
          "name": "_to",
          "type": "address"
        },
        {
          "indexed": true,
          "internalType": "uint256",
          "name": "_tokenId",
          "type": "uint256"
        }
      ],
      "name": "Transfer",
      "type": "event"
    },
    {
      "inputs": [
        {
          "internalType": "address",
          "name": "to",
          "type": "address"
        },
        {
          "internalType": "uint256",
          "name": "tokenId",
          "type": "uint256"
        }
      ],
      "name": "approve",
      "outputs": [],
      "stateMutability": "nonpayable",
      "type": "function"
    },
    {
      "inputs": [
        {
          "internalType": "address",
          "name": "owner",
          "type": "address"
        }
      ],
      "name": "balanceOf",
      "outputs": [
        {
          "internalType": "uint256",
          "name": "",
          "type": "uint256"
        }
      ],
      "stateMutability": "view",
      "type": "function"
    },
    {
      "inputs": [
        {
          "internalType": "address",
          "name": "owner",
          "type": "address"
        },
        {
          "internalType": "uint256",
          "name": "tokenId",
          "type": "uint256"
        }
      ],
      "name": "create",
      "outputs": [],
      "stateMutability": "nonpayable",
      "type": "function"
    },
    {
      "inputs": [
        {
          "internalType": "uint256",
          "name": "tokenId",
          "type": "uint256"
        }
      ],
      "name": "destroy",
      "outputs": [],
      "stateMutability": "nonpayable",
      "type": "function"
    },
    {
      "inputs": [
        {
          "internalType": "uint256",
          "name": "tokenId",
          "type": "uint256"
        }
      ],
      "name": "getApproved",
      "outputs": [
        {
          "internalType": "address",
          "name": "",
          "type": "address"
        }
      ],
      "stateMutability": "view",
      "type": "function"
    },
    {
      "inputs": [
        {
          "internalType": "address",
          "name": "owner",
          "type": "address"
        },
        {
          "internalType": "address",
          "name": "operator",
          "type": "address"
        }
      ],
      "name": "isApprovedForAll",
      "outputs": [
        {
          "internalType": "bool",
          "name": "",
          "type": "bool"
        }
      ],
      "stateMutability": "view",
      "type": "function"
    },
    {
      "inputs": [],
      "name": "name",
      "outputs": [
        {
          "internalType": "string",
          "name": "",
          "type": "string"
        }
      ],
      "stateMutability": "view",
      "type": "function"
    },
    {
      "inputs": [
        {
          "internalType": "uint256",
          "name": "tokenId",
          "type": "uint256"
        }
      ],
      "name": "ownerOf",
      "outputs": [
        {
          "internalType": "address",
          "name": "",
          "type": "address"
        }
      ],
      "stateMutability": "view",
      "type": "function"
    },
    {
      "inputs": [],
      "name": "registerOfDeeds",
      "outputs": [
        {
          "internalType": "contract IRegisterOfDeeds",
          "name": "",
          "type": "address"
        }
      ],
      "stateMutability": "view",
      "type": "function"
    },
    {
      "inputs": [
        {
          "internalType": "address",
          "name": "from",
          "type": "address"
        },
        {
          "internalType": "address",
          "name": "to",
          "type": "address"
        },
        {
          "internalType": "uint256",
          "name": "tokenId",
          "type": "uint256"
        }
      ],
      "name": "safeTransferFrom",
      "outputs": [],
      "stateMutability": "nonpayable",
      "type": "function"
    },
    {
      "inputs": [
        {
          "internalType": "address",
          "name": "from",
          "type": "address"
        },
        {
          "internalType": "address",
          "name": "to",
          "type": "address"
        },
        {
          "internalType": "uint256",
          "name": "tokenId",
          "type": "uint256"
        },
        {
          "internalType": "bytes",
          "name": "data",
          "type": "bytes"
        }
      ],
      "name": "safeTransferFrom",
      "outputs": [],
      "stateMutability": "nonpayable",
      "type": "function"
    },
    {
      "inputs": [
        {
          "internalType": "address",
          "name": "operator",
          "type": "address"
        },
        {
          "internalType": "bool",
          "name": "approved",
          "type": "bool"
        }
      ],
      "name": "setApprovalForAll",
      "outputs": [],
      "stateMutability": "nonpayable",
      "type": "function"
    },
    {
      "inputs": [
        {
          "internalType": "bytes4",
          "name": "interfaceId",
          "type": "bytes4"
        }
      ],
      "name": "supportsInterface",
      "outputs": [
        {
          "internalType": "bool",
          "name": "",
          "type": "bool"
        }
      ],
      "stateMutability": "view",
      "type": "function"
    },
    {
      "inputs": [],
      "name": "symbol",
      "outputs": [
        {
          "internalType": "string",
          "name": "",
          "type": "string"
        }
      ],
      "stateMutability": "view",
      "type": "function"
    },
    {
      "inputs": [
        {
          "internalType": "uint256",
          "name": "tokenId",
          "type": "uint256"
        }
      ],
      "name": "tokenURI",
      "outputs": [
        {
          "internalType": "string",
          "name": "",
          "type": "string"
        }
      ],
      "stateMutability": "view",
      "type": "function"
    },
    {
      "inputs": [
        {
          "internalType": "address",
          "name": "from",
          "type": "address"
        },
        {
          "internalType": "address",
          "name": "to",
          "type": "address"
        },
        {
          "internalType": "uint256",
          "name": "tokenId",
          "type": "uint256"
        }
      ],
      "name": "transferFrom",
      "outputs": [],
      "stateMutability": "nonpayable",
      "type": "function"
    },
    {
      "inputs": [],
      "name": "underlyingToken",
      "outputs": [
        {
          "internalType": "contract IERC721",
          "name": "",
          "type": "address"
        }
      ],
      "stateMutability": "view",
      "type": "function"
    }
  ],
  "bytecode": "0x60c060405234801561001057600080fd5b50604051611b4b380380611b4b8339818101604052602081101561003357600080fd5b505133606081811b60805282901b6001600160601b03191660a052906001600160a01b0316611a9a6100b1600039806104bd528061061252806107195280610bb75280610d015280610e085280610ffd5280611104528061163052806116f2525080610b135280610bf85280610e6a52806116015250611a9a6000f3fe608060405234801561001057600080fd5b506004361061011b5760003560e01c806360ce65ab116100b25780639d11877011610081578063b88d4fde11610066578063b88d4fde1461038f578063c87b56dd14610455578063e985e9c5146104725761011b565b80639d11877014610344578063a22cb465146103615761011b565b806360ce65ab146102df5780636352211e146102e757806370a082311461030457806395d89b411461033c5761011b565b80630ecaea73116100ee5780630ecaea731461023f57806323b872dd1461026b5780632495a599146102a157806342842e0e146102a95761011b565b806301ffc9a71461012057806306fdde031461015b578063081812fc146101d8578063095ea7b314610211575b600080fd5b6101476004803603602081101561013657600080fd5b50356001600160e01b0319166104a0565b604080519115158252519081900360200190f35b61016361060e565b6040805160208082528351818301528351919283929083019185019080838360005b8381101561019d578181015183820152602001610185565b50505050905090810190601f1680156101ca5780820380516001836020036101000a031916815260200191505b509250505060405180910390f35b6101f5600480360360208110156101ee57600080fd5b5035610862565b604080516001600160a01b039092168252519081900360200190f35b61023d6004803603604081101561022757600080fd5b506001600160a01b038135169060200135610901565b005b61023d6004803603604081101561025557600080fd5b506001600160a01b038135169060200135610b08565b61023d6004803603606081101561028157600080fd5b506001600160a01b03813581169160208101359091169060400135610b93565b6101f5610bb5565b61023d600480360360608110156102bf57600080fd5b506001600160a01b03813581169160208101359091169060400135610bd9565b6101f5610bf6565b6101f5600480360360208110156102fd57600080fd5b5035610c1a565b61032a6004803603602081101561031a57600080fd5b50356001600160a01b0316610c84565b60408051918252519081900360200190f35b610163610cfd565b61023d6004803603602081101561035a57600080fd5b5035610e5f565b61023d6004803603604081101561037757600080fd5b506001600160a01b0381351690602001351515610ee8565b61023d600480360360808110156103a557600080fd5b6001600160a01b038235811692602081013590911691604082013591908101906080810160608201356401000000008111156103e057600080fd5b8201836020820111156103f257600080fd5b8035906020019184600183028401116401000000008311171561041457600080fd5b91908080601f016020809104026020016040519081016040528093929190818152602001838380828437600092019190915250929550610fe5945050505050565b6101636004803603602081101561046b57600080fd5b5035610ff9565b6101476004803603604081101561048857600080fd5b506001600160a01b038135811691602001351661125a565b60006001600160e01b03198216635b5e139f60e01b1415610571577f00000000000000000000000000000000000000000000000000000000000000006001600160a01b03166301ffc9a7836040518263ffffffff1660e01b815260040180827bffffffffffffffffffffffffffffffffffffffffffffffffffffffff1916815260200191505060206040518083038186803b15801561053e57600080fd5b505afa158015610552573d6000803e3d6000fd5b505050506040513d602081101561056857600080fd5b50519050610609565b6001600160e01b031982167f01ffc9a70000000000000000000000000000000000000000000000000000000014806105d257506001600160e01b031982167f80ac58cd00000000000000000000000000000000000000000000000000000000145b8061060657506001600160e01b031982167fd780ad3100000000000000000000000000000000000000000000000000000000145b90505b919050565b60607f00000000000000000000000000000000000000000000000000000000000000006001600160a01b03166301ffc9a7635b5e139f60e01b6040518263ffffffff1660e01b815260040180827bffffffffffffffffffffffffffffffffffffffffffffffffffffffff1916815260200191505060206040518083038186803b15801561069a57600080fd5b505afa1580156106ae573d6000803e3d6000fd5b505050506040513d60208110156106c457600080fd5b5051610717576040805162461bcd60e51b815260206004820152601c60248201527f446565643a204d65746164617461206e6f7420737570706f7274656400000000604482015290519081900360640190fd5b7f00000000000000000000000000000000000000000000000000000000000000006001600160a01b03166306fdde036040518163ffffffff1660e01b815260040160006040518083038186803b15801561077057600080fd5b505afa158015610784573d6000803e3d6000fd5b505050506040513d6000823e601f3d908101601f1916820160405260208110156107ad57600080fd5b81019080805160405193929190846401000000008211156107cd57600080fd5b9083019060208201858111156107e257600080fd5b82516401000000008111828201881017156107fc57600080fd5b82525081516020918201929091019080838360005b83811015610829578181015183820152602001610811565b50505050905090810190601f1680156108565780820380516001836020036101000a031916815260200191505b50604052505050905090565b6000818152600160205260408120546001600160a01b0381166108cc576040805162461bcd60e51b815260206004820152601860248201527f4552433732313a206e6f6e2d6578697374696e67204e46540000000000000000604482015290519081900360640190fd5b600160a01b8116156108f75750506000818152600360205260409020546001600160a01b0316610609565b6000915050610609565b60008181526001602052604090205480610962576040805162461bcd60e51b815260206004820152601860248201527f4552433732313a206e6f6e2d6578697374696e67204e46540000000000000000604482015290519081900360640190fd5b806001600160a01b0384811690821614156109c4576040805162461bcd60e51b815260206004820152601560248201527f4552433732313a2073656c662d617070726f76616c0000000000000000000000604482015290519081900360640190fd5b6109d5816109d0611286565b61128a565b610a26576040805162461bcd60e51b815260206004820152601b60248201527f4552433732313a206e6f6e2d617070726f7665642073656e6465720000000000604482015290519081900360640190fd5b6001600160a01b038416610a6057600160a01b821615610a5b5760008381526001602052604090206001600160a01b03821690555b610ac1565b600160a01b8217808314610a805760008481526001602052604090208190555b50600083815260036020526040902080547fffffffffffffffffffffffff0000000000000000000000000000000000000000166001600160a01b0386161790555b82846001600160a01b0316826001600160a01b03167f8c5be1e5ebec7d5bd14f71427d1e84f3dd0314c0f7b2291e5b200ac8c7c3b92560405160405180910390a450505050565b336001600160a01b037f00000000000000000000000000000000000000000000000000000000000000001614610b85576040805162461bcd60e51b815260206004820152601f60248201527f446565643a206e6f7420746865207265676973746572206f6620646565647300604482015290519081900360640190fd5b610b8f82826112d6565b5050565b610bb08383836040518060200160405280600081525060006113f2565b505050565b7f000000000000000000000000000000000000000000000000000000000000000081565b610bb08383836040518060200160405280600081525060016113f2565b7f000000000000000000000000000000000000000000000000000000000000000081565b6000818152600160205260408120546001600160a01b038116610606576040805162461bcd60e51b815260206004820152601860248201527f4552433732313a206e6f6e2d6578697374696e67204e46540000000000000000604482015290519081900360640190fd5b60006001600160a01b038216610ce1576040805162461bcd60e51b815260206004820152601460248201527f4552433732313a207a65726f2061646472657373000000000000000000000000604482015290519081900360640190fd5b506001600160a01b031660009081526002602052604090205490565b60607f00000000000000000000000000000000000000000000000000000000000000006001600160a01b03166301ffc9a7635b5e139f60e01b6040518263ffffffff1660e01b815260040180827bffffffffffffffffffffffffffffffffffffffffffffffffffffffff1916815260200191505060206040518083038186803b158015610d8957600080fd5b505afa158015610d9d573d6000803e3d6000fd5b505050506040513d6020811015610db357600080fd5b5051610e06576040805162461bcd60e51b815260206004820152601c60248201527f446565643a204d65746164617461206e6f7420737570706f7274656400000000604482015290519081900360640190fd5b7f00000000000000000000000000000000000000000000000000000000000000006001600160a01b03166395d89b416040518163ffffffff1660e01b815260040160006040518083038186803b15801561077057600080fd5b336001600160a01b037f00000000000000000000000000000000000000000000000000000000000000001614610edc576040805162461bcd60e51b815260206004820152601f60248201527f446565643a206e6f7420746865207265676973746572206f6620646565647300604482015290519081900360640190fd5b610ee581611995565b50565b6000610ef2611286565b9050806001600160a01b0316836001600160a01b03161415610f5b576040805162461bcd60e51b815260206004820152601560248201527f4552433732313a2073656c662d617070726f76616c0000000000000000000000604482015290519081900360640190fd5b6001600160a01b038181166000818152602081815260408083209488168084529482529182902080547fffffffffffffffffffffffffffffffffffffffffffffffffffffffffffffff0016871515908117909155825190815291517f17307eab39ab6107e8899845ad3d59bd9653f200f220920489ca2b5937696c319281900390910190a3505050565b610ff38484848460016113f2565b50505050565b60607f00000000000000000000000000000000000000000000000000000000000000006001600160a01b03166301ffc9a7635b5e139f60e01b6040518263ffffffff1660e01b815260040180827bffffffffffffffffffffffffffffffffffffffffffffffffffffffff1916815260200191505060206040518083038186803b15801561108557600080fd5b505afa158015611099573d6000803e3d6000fd5b505050506040513d60208110156110af57600080fd5b5051611102576040805162461bcd60e51b815260206004820152601c60248201527f446565643a204d65746164617461206e6f7420737570706f7274656400000000604482015290519081900360640190fd5b7f00000000000000000000000000000000000000000000000000000000000000006001600160a01b031663c87b56dd836040518263ffffffff1660e01b81526004018082815260200191505060006040518083038186803b15801561116657600080fd5b505afa15801561117a573d6000803e3d6000fd5b505050506040513d6000823e601f3d908101601f1916820160405260208110156111a357600080fd5b81019080805160405193929190846401000000008211156111c357600080fd5b9083019060208201858111156111d857600080fd5b82516401000000008111828201881017156111f257600080fd5b82525081516020918201929091019080838360005b8381101561121f578181015183820152602001611207565b50505050905090810190601f16801561124c5780820380516001836020036101000a031916815260200191505b506040525050509050919050565b6001600160a01b0391821660009081526020818152604080832093909416825291909152205460ff1690565b3390565b6000816001600160a01b0316836001600160a01b031614806112cf57506001600160a01b038084166000908152602081815260408083209386168352929052205460ff165b9392505050565b6001600160a01b038216611331576040805162461bcd60e51b815260206004820152601460248201527f4552433732313a206d696e7420746f207a65726f000000000000000000000000604482015290519081900360640190fd5b60008181526001602052604090205415611392576040805162461bcd60e51b815260206004820152601460248201527f4552433732313a206578697374696e67204e4654000000000000000000000000604482015290519081900360640190fd5b60008181526001602081815260408084206001600160a01b038716908190558085526002909252808420805490930190925590518392907fddf252ad1be2c89b69c2b068fc378daa952ba7f163c4a11628f55a4df523b3ef908290a45050565b6001600160a01b03841661144d576040805162461bcd60e51b815260206004820152601860248201527f4552433732313a207472616e7366657220746f207a65726f0000000000000000604482015290519081900360640190fd5b6000611457611286565b90506000611465878361128a565b6000868152600160205260409020549091506001600160a01b03888116908216146114d7576040805162461bcd60e51b815260206004820152601560248201527f4552433732313a206e6f6e2d6f776e6564204e46540000000000000000000000604482015290519081900360640190fd5b8161156857600160a01b81161580159061151757506000868152600360205260409020546001600160a01b031661150c611286565b6001600160a01b0316145b611568576040805162461bcd60e51b815260206004820152601b60248201527f4552433732313a206e6f6e2d617070726f7665642073656e6465720000000000604482015290519081900360640190fd5b60008681526001602052604090206001600160a01b03808916918290558916146115bc576001600160a01b038089166000908152600260205260408082208054600019019055918916815220805460010190555b85876001600160a01b0316896001600160a01b03167fddf252ad1be2c89b69c2b068fc378daa952ba7f163c4a11628f55a4df523b3ef60405160405180910390a460007f00000000000000000000000000000000000000000000000000000000000000006001600160a01b031663883deacf7f0000000000000000000000000000000000000000000000000000000000000000896040518363ffffffff1660e01b815260040180836001600160a01b031681526020018281526020019250505060206040518083038186803b15801561169457600080fd5b505afa1580156116a8573d6000803e3d6000fd5b505050506040513d60208110156116be57600080fd5b5051604080517f58d179a5000000000000000000000000000000000000000000000000000000008082526001600160a01b037f000000000000000000000000000000000000000000000000000000000000000081166004840152602483018c90528d811660448401528c81166064840152925193945092918416916358d179a5916084808201926020929091908290030181600087803b15801561176157600080fd5b505af1158015611775573d6000803e3d6000fd5b505050506040513d602081101561178b57600080fd5b50516001600160e01b031916146117e9576040805162461bcd60e51b815260206004820152601b60248201527f446565643a206167656e742063616c6c6261636b206661696c65640000000000604482015290519081900360640190fd5b8480156118035750611803886001600160a01b0316611a5e565b1561198a577f150b7a02000000000000000000000000000000000000000000000000000000006001600160a01b03891663150b7a02611840611286565b8c8b8b6040518563ffffffff1660e01b815260040180856001600160a01b03168152602001846001600160a01b0316815260200183815260200180602001828103825283818151815260200191508051906020019080838360005b838110156118b357818101518382015260200161189b565b50505050905090810190601f1680156118e05780820380516001836020036101000a031916815260200191505b5095505050505050602060405180830381600087803b15801561190257600080fd5b505af1158015611916573d6000803e3d6000fd5b505050506040513d602081101561192c57600080fd5b50516001600160e01b0319161461198a576040805162461bcd60e51b815260206004820152601860248201527f4552433732313a207472616e7366657220726566757365640000000000000000604482015290519081900360640190fd5b505050505050505050565b6000818152600160205260409020546001600160a01b0381166119ff576040805162461bcd60e51b815260206004820152601860248201527f4552433732313a206e6f6e2d6578697374696e67204e46540000000000000000604482015290519081900360640190fd5b60008281526001602090815260408083208390556001600160a01b0384168084526002909252808320805460001901905551849291907fddf252ad1be2c89b69c2b068fc378daa952ba7f163c4a11628f55a4df523b3ef908390a45050565b3b15159056fea264697066735822122076942f98c308b961729fd268100be665ff569082a05c0ead959e8c052c6f948264736f6c63430007060033",
  "linkReferences": {},
  "deployedLinkReferences": {}
}